:1000000000000320D1010000F91F0000B11F000013
:10001000B11F0000B11F0000B11F0000B11F0000A0
:10002000B11F0000B11F0000B11F0000F91F000048
:10003000F91F0000B11F0000992800009D29000051
:10004000F91F0000F91F0000F91F0000F91F000050
:10005000F91F0000F91F0000F91F0000F91F000040
:10006000F91F0000F91F0000F91F0000F91F000030
:10007000F91F0000F91F0000F91F0000F91F000020
:10008000F91F0000F91F0000F91F0000F91F000010
:10009000F91F0000F91F0000F91F0000F91F000000
:1000A000F91F0000F91F0000F91F0000F91F0000F0
:1000B000F91F0000F91F0000F91F000011210000C6
:1000C000F91F00003D220000F91F00006923000015
:1000D000F91F000061240000F91F0000F91F000053
:1000E000F91F0000F91F0000F91F0000F5060000CD
:1000F00015070000F91F0000F91F0000F91F00009C
:10010000DD1C0000F11C0000051D0000191D000091
:10011000F91F0000790F0000F91F0000F91F00000F
:10012000F91F0000F91F0000F91F0000F91F00006F
:10013000F91F0000F91F0000F91F0000F91F00005F
:10014000F91F0000F91F000059250000F91F0000E9
:10015000F91F0000F91F0000F91F0000F91F00003F
:10016000F91F0000F91F0000F91F0000F91F00002F
:10017000F91F0000F91F0000F91F0000F91F00001F
:10018000F91F0000F91F0000F91F0000F91F00000F
:10019000F91F0000F91F000051260000F91F0000A0
:1001A000F91F0000F91F0000F91F0000F91F0000EF
:1001B000F91F0000F91F0000F91F0000F91F0000DF
:1001C000F91F0000F91F0000F91F0000F91F0000CF
:1001D0005C4B4CF2205210B51A804DF628121A8052
:1001E00000BF00BF01F00CFF574B4FF030621A60A8
:1001F000564A9A60564ADA60564B4FF470021A60BB
:10020000554B564A1A60564A136813F4807304D14A
:1002100054490B604FF4A8531360534B1A781107DD
:1002200003D51A7842F008021A70504B5049AA229E
:100230001A70504A504B8B4204D252F8040F43F8C4
:10024000040BF8E74D4B4E4900228B4202D243F893
:10025000042BFAE74B494C4A002352F8230041F89B
:1002600023000133742BF8D1484B494A802103F80D
:10027000011B9342FBD1474B424A1A60464B8A22EC
:100280001A70A3F5805324225A70A0221A709A790A
:100290009207FCD59A79D406FCD4404A937903F0AE
:1002A0000C03082BFAD13E4B60221A7002331A78E5
:1002B000802AFCD1394B01221A715D225A719A7938
:1002C0009006FCD59979354A4906FBD5354B364918
:1002D00019600021596020231370937903F00C03F7
:1002E0000C2BFAD1314B324A1A60324B324A1A6027
:1002F00000225A60072243F8042C304AC3F80C2D20
:1003000062B600F0CBFC174B1B68DA0705D52C480A
:1003100000F046FC2B4B2C4A1A602C4B1B785B06DA
:1003200009D5284C284B22689A4204D1244800F071
:1003300037FC0023236002F057FB01F067FE01F059
:10034000F5FCFEE70E20054030800440823F0400AB
:100350000100002B88ED00E0002008E0030000858C
:1003600010D0034014D0034002D0074000E0074003
:100370007C10FF1F7C3600003007FF1F7C10FF1F22
:100380006815FF1F0002FF1F0000000000E400E0EE
:1003900064E400E008ED00E0005006400040064044
:1003A00001E007404480044000000602048004404D
:1003B000C010070014E000E01FBF02000000202072
:1003C0008B0DC3001CE00340A5C3945A00F0074006
:1003D000FFFFFFFFFFFFFFFFFFFFFFFFFFFFFFFF2D
:1003E000FFFFFFFFFFFFFFFFFFFFFFFFFFFFFFFF1D
:1003F000FFFFFFFFFFFFFFFFFFFFFFFFFFFFFFFF0D
:10040000FFFFFFFFFFFFFFFFFFFFFFFFDEF9FFFF23
:1004100010B5054C237833B9044B13B10448AFF33E
:1004200000800123237010BD7C10FF1F000000001E
:1004300080360000084B10B51BB108490848AFF3DF
:1004400000800848036803B910BD074B002BFBD0A0
:10045000BDE81040184700BF000000008010FF1FDB
:10046000803600007C10FF1F0000000010B504461D
:1004700001F012FC204610BD054B064A19681268AF
:10048000914216BF1A68002201321A60704700BFFD
:10049000A410FF1F4407FF1F10B51D4C40F6B831D4
:1004A000204600F025FA20461A494FF4E13200F0C8
:1004B000F9F92046012100F0CFF9D8B90122002135
:1004C000134800F0DDFA01210D2000F08FFB124BE4
:1004D0000021187800F08AFB104B0021187800F0FA
:1004E00085FB00240121E0B20C4400F07FFB052CC9
:1004F000F8D110BD606C0A49036811225B68984707
:1005000020460A2100F01AF9204600F0C9F9D5E783
:10051000B410FF1F8007FF1F4807FF1F4C07FF1F76
:100520003C33000038B50A4D2B688342044604D0A2
:10053000084B0121187800F045FB6B689C4206D0FF
:10054000044B01211879BDE8384000F03BBB38BDB1
:100550003807FF1F5007FF1F70B54A4C84B023684F
:100560000193019B23B923680293029B012B20D99D
:10057000454D464E284600F0F3F832684449904213
:100580000346086063D39A1AF92A12D94FF4FA7114
:100590002846336000F0EEF80121284600F05CF9AF
:1005A000002856D13848022100F0C8F8364800F03B
:1005B00049F9384B384C1878384D00F009FB384A67
:1005C000031C18BF01231078237000F001FB23786F
:1005D000003018BF01208342287026D03149324AAA
:1005E000324801F00FFB217821B32B7813B1304B47
:1005F00000221A7072B62F4B2F4C1B68236062B614
:100600002068FFF78FFF0D212C4801F0F5F92168D4
:100610002B4800230A2201F0A1FB294801F08EFBA0
:10062000642000F0E9FA04B070BD00210D2000F054
:10063000C9FADFE7234B2248197001F0CFFB2048AD
:1006400001F07CFB01210D2000F0BCFACDE7336006
:10065000AFE72846012100F09FF8686C1A4903684B
:1006600001225B689847236803930399686C002311
:100670000A2201F073FB284600F0D4F8284600F067
:100680000FF98FE70011FF1FB410FF1F9810FF1F15
:10069000B010FF1F4807FF1FA810FF1FA910FF1F62
:1006A0004C07FF1F790400007F8D5B009C10FF1F2B
:1006B0004007FF1FA410FF1FAC10FF1F54330000A2
:1006C0008007FF1F3407FF1F5033000030B4054B75
:1006D000054A0649802400251C711D60184630BC5F
:1006E00002F070B99C10FF1F3007FF1F6D0400005F
:1006F000704700BF044A1368190644BF03F07F0324
:100700001360024B1B681847009003406407FF1FEB
:10071000704700BF044A1368190644BF03F07F0303
:100720001360024B1B68184700800B406807FF1FCF
:1007300001F0FCB801F01EB901F034B9074882B0ED
:1007400003680193019A114401E0994204D30368BC
:100750000093009B9A42F8D902B070470011FF1F26
:10076000034B82B01B680193019802B0704700BF31
:100770000011FF1F10B4074B82681B68016183B032
:1007800000240193019B4461C260836003B05DF863
:10079000044B70470011FF1FF0B51E4B1E4D1A6829
:1007A0000446406C83B0036801920F465B681B49A6
:1007B000019E062298473946606C00230A2201F008
:1007C000CDFA606C1649036803225B68984731468E
:1007D000606C00230A2201F0C1FA606C03682946AC
:1007E0005B6801229847A168606C711A00230A2295
:1007F00001F0B4FA606C036829465B6801229847EF
:10080000E368A168606CC91A0A22002301F0A6FA05
:1008100003B0F0BD0011FF1F70330000643300000F
:100820006C33000010B5446C0549236820465B68B2
:10083000062298472046BDE8104001F07FBA00BF6D
:1008400074330000034B82B01B680193019B8360EB
:1008500002B070470011FF1F10B4104A85B0A1B953
:10086000136800934168009B591A20290DD813681A
:100870000293029C04F12103591A01E0994204D326
:1008800013680193019B9C42F8D913680393039B5F
:100890004360012005B05DF8044B70470011FF1F55
:1008A000704700BF2DE9F0410D4D0E4EDFF83C8042
:1008B0000D4F41641B2401E000F09EF92B78C82005
:1008C00043B13378DB0705D5D8F800303A689B1A76
:1008D0000E2B03D8013CEFD1BDE8F081BDE8F081DB
:1008E000E411FF1FFC11FF1F6015FF1F0011FF1F08
:1008F00000238364436071B1074882B003680193A9
:10090000019A114401E0994204D303680093009BCB
:100910009A42F8D902B070470011FF1F70B5144C0D
:1009200084B00546406C236803930368039A6A60A9
:100930000E465B680F4906229847314600230A227B
:10094000686C01F00BFA686C0B49036808225B685D
:10095000984723680293029A02F1320101E099421A
:1009600004D323680193019B9A42F8D904B070BD67
:100970000011FF1F7C33000084330000F8B5037EB4
:100980000BB96320F8BD0446406C3B4E03681B69FD
:10099000B3420D466AD101F005F810F0FF0F01D106
:1009A0006520F8BD354F606C03681B69B3425FD1A9
:1009B00000F0F8FF10F0FF0FF2D0606C03685B6985
:1009C000BB4257D100F0B2FFC3B2A3F158021E2AB6
:1009D000E9D801A151F822F0650A0000A70900003A
:1009E000A7090000A7090000A7090000A709000047
:1009F000A7090000A7090000A7090000A709000037
:100A0000A7090000590A0000A7090000A709000073
:100A1000A7090000A709000083090000A70900003A
:100A2000A7090000A7090000A7090000A709000006
:100A3000A7090000A7090000A7090000830900001A
:100A4000A7090000A7090000A7090000A7090000E6
:100A5000550A00001846F8BD20462946FFF75EFFFC
:100A60006320F8BD002323766320F8BD984794E700
:100A700098479FE79847A7E739070000310700002C
:100A800070B5054682B01646C9B101230D4C0376F8
:100A900000212846FFF772FF632810D023680193D6
:100AA000019A511C23680093009B9A42F0D8994206
:100AB000F8D200212846FFF761FF6328EED12E7699
:100AC00002B070BD0011FF1F034B00229A60DA6074
:100AD0001A615A61704700BFB410FF1F10B4114B68
:100AE00053F8302092F8804234B1012379B182F872
:100AF00080305DF8044B704703EBC0035B681A68F5
:100B000051B922F002021A605DF8044B704782F876
:100B100000315DF8044B704742F003021A605DF843
:100B2000044B7047D83300001C4A02EBC003012974
:100B30005B6811D004291BD052F83000002280F8E5
:100B4000802229B1022920D0032922D01A607047BF
:100B50004FF480721A60704752F830004FF4A2725E
:100B600080F880121A601A6822F020021A6070471A
:100B700052F830104FF4A272012081F880021A60FE
:100B80001A6842F020021A60704740F203121A609D
:100B900070474FF481721A60704700BFD83300006D
:100BA00030B4054B054D064C002210211A602A6016
:100BB0002060196030BC704714D0034004D003405B
:100BC00000D003403F2801D8FFF788BF704700BF1F
:100BD0003F2806D8044B53F8303093F80002C0B2D7
:100BE00070470020704700BFD83300003F2801D86D
:100BF000FFF79ABF704700BF2DE9F843054672B66C
:100C0000224F234B234A1B683C68126862B652018C
:100C100002D5322B88BF0134B5B3C3F52F3303F2AD
:100C20001F331D4EDFF86890DFF868809B084FF493
:100C30007A72A6FB031302FB04F404EB930472B66E
:100C4000D9F800103A68D8F800E062B6C1F52F3341
:100C500003F21F339B08A6FB03031EF0806FC4EB57
:100C600093034FF47A7002D0322988BF013200FB1F
:100C70000233B3F57A7F04D3013D05D004F57A74CD
:100C8000DDE701F0C3F8DAE7BDE8F8830011FF1FE4
:100C900018E000E004ED00E0176CC116F8B54E4B0B
:100CA0004E48DFF85CC14E4C4E49DFF858E14E4EDD
:100CB0004E4D4F4F4FF000621A604FF080521A6055
:100CC0004FF000521A604FF080421A604FF000421D
:100CD0001A600022026028234EF6FF70CCF8000054
:100CE000CEF8003023600EF5012E0B6033602B60D0
:100CF00006F500263B6005F50025A36207F50027F1
:100D00008B6204F5012401F5012106F6E87605F66B
:100D1000E87507F57F6710310EF1100E203433604F
:100D20002B60CEF800303B600B602360314CBB6120
:100D30008B6109212160A7F5002704F58054203F2D
:100D400008343A602060BB60E36047F8041C04F597
:100D5000FD2407F5FE27043704F2FC742260386096
:100D6000A360FB6044F8041C083404F6FC74C7F864
:100D7000FC2F2060A4F5E124A4F2DC7433602B6026
:100D8000C7F8F81F21681C4841F400712160016810
:100D90001A4C0EF57F4E0EF1E80E07F5883706F572
:100DA000803605F5803541F000710160CEF80020F5
:100DB00047F6FF710822396033602B60226001F032
:100DC00087F81920FFF718FF00F002FD40F213101A
:100DD000BDE8F840FFF710BF04E100E004800340E5
:100DE000148003401C800340248003402C80034077
:100DF00034800340008003400480044000900C4095
:100E0000088003400C800340431E032B14D872B6A5
:100E10000A4951F8230068B170B4094C058834F8C8
:100E20001320466841F82360521B24F8132062B651
:100E300070BC704762B67047002070475C11FF1F9E
:100E40005015FF1F013803280BD872B6074B53F813
:100E5000203043B100205B680130002BFBD162B62B
:100E60007047002070471846F9E700BFB011FF1F18
:100E7000F0B472B61A491B4E012311F8014B194FF9
:100E80009A00240742F0010505D556F8324064B1B6
:100E900056F83520BAB10133052BEED162B6124BAC
:100EA00000221A70F0BC00F01BBD0F4C0F4D2178D2
:100EB00047F8325007EB431308304A1E586022703F
:100EC00062B6F0BC70470849094B0A7847F83530DC
:100ED00007EBC5030830013A58600A7062B6F0E7C4
:100EE000043600000000FF1FD911FF1F88004000DA
:100EF000C8004000431E032B1DD81B4A400140F090
:100F0000100030B4104472B6184CE25C032A1BD8AF
:100F1000DFE802F00212151703220D88E25410F0E8
:100F2000080F14BFC823882343EA05430831036030
:100F3000416062B630BC704708300222EDE70522FE
:100F4000EBE708300422E8E7094A52F8230038B1F9
:100F5000084A52F82300416042F8231062B6E9E7DC
:100F600042F82310034AF7E70000FF1FE811FF1FB4
:100F7000B011FF1FC011FF1F2DE9F04FDFF804A3D0
:100F8000DFF804B387B044E0A94F4FEA930807EBBA
:100F9000C809013ED9F8042003F00803F6B2A2F113
:100FA000080003F0FF04002B40F0FE8057F83830B3
:100FB0001B0C99B222F8081C002B00F0EC809D4B12
:100FC00022F8064C42F8044C53F82620002A00F080
:100FD0002B82994D55F826305860984C45F82600DC
:100FE00034F81630194424F8161000F059FC002883
:100FF00000F01382924A934B19F0080F00F1080099
:1010000018BF1346C9F8040047F8383008238AF897
:1010100000309AF80040E4B260071AD58A4B1B787A
:10102000A3B18A490A7802F0FF0322B1013BDBB287
:101030000B7003B900BE86490A7802F0FF032AB19B
:10104000013BDBB20B70002B00F0BD8104238AF85A
:10105000003004F0080303F0FF02002B00F0C8800A
:101060009BF80030DBB21E098ED19C08704F57F8F8
:10107000342007EBC401C2F38302013A49680C2A09
:1010800000F28580DFE802F07979838383838383AC
:1010900042838383070008686E4B6F4D0193684B52
:1010A0004A686E4E47F8343081B240F28164694B31
:1010B0006A60286000220120A1421A603A61BA6188
:1010C000307000F2E380B1F5D06F80F02782B1F587
:1010D000817F00F0E08100F2C381802900F0368238
:1010E000822940F0DE81A9885D4B01F07F0104294F
:1010F00000F2D8815B4C89000B44227062701A7830
:10110000930740F122832070022023E2514B019388
:101110001A683AB3544B514E5449188834780D78B4
:101120004028864645F0020828BF4FF0400E002CAC
:1011300084F001043470CEEB00000CBF8824C82476
:1011400007EBC80680B285F0010544EA0E447260E0
:10115000188047F8384072440D70002800F0B780BE
:10116000019B1A603C4B1A88B2F5A06F0FD1002189
:101170009A7859703E4B1A7009E0374A108842F24B
:101180002102904200F0A8802D4A47F83420394AC5
:10119000012313703AE72A4A2A4B19F0080F18BFA7
:1011A000134647F8383031E700F09AFB324A3349AA
:1011B00052F82630002B00F03B8158688C5D42F8D5
:1011C000260003F10802C9F80420032C05D8DFE843
:1011D00004F02C02292602228A551A8819F0080FD9
:1011E0000CBF8823C82343EA024347F838300DE791
:1011F000E00700F1EB80210600F12881A20706D567
:101200001F4A204913780220DBB213700870E306EE
:1012100002D51C4B10221A7007B0BDE8F08F0422D3
:101220008A55DAE705228A55D7E703228A55D4E79B
:101230000000FF1F5C11FF1F0811FF1F5015FF1F4B
:10124000C800400088004000E411FF1F6D11FF1F1F
:10125000EC11FF1F0411FF1FD011FF1F6C11FF1FA6
:10126000C0200740DC11FF1F1811FF1FD811FF1FFE
:101270009820074094200740B011FF1FE811FF1F7E
:1012800088200740802007409020074042F2210438
:10129000A14200F0948043D8B1F5086F00F0A88116
:1012A000B1F5106F40F0FD80B84AB94CA9781170C3
:1012B00004F1800503E00834AC4200F09E81236A0B
:1012C0001906F8D5606A083800F00AFBF3E7BEF1AA
:1012D000400F18BF002243E7AE4ACD1D11F8013B75
:1012E00002F8013FA942F9D1AB4A1268862A00F000
:1012F0001181AA49AA4E0A78307882F001050028A7
:1013000042F002020D700CBF8821C82147F832104C
:1013100007EBC20280F0010000213070516033E71A
:1013200042F22124A14240F0FE81DFF8BCC29D4B75
:101330009D49AC78DCF800501D6081460C7000209F
:10134000029080468446044694490D7845F0020E8A
:1013500007EBCE03B9F1000F5C600CBF8824C824F2
:1013600044EA080385F0010447F83E3032700C70FF
:10137000DFF81CE28A4BDFF82482002840F09880D6
:10138000BCF1400F1BD144F0020407EBC403029FE1
:10139000DFF8FCE15F60002A40F09F80020442F029
:1013A000880207444EF8342086F800900D703B46C2
:1013B000402804D100207D4A019910800B607C4AAE
:1013C00001231370E3E600F0F7FB3FE6704B78482B
:1013D00072491A614FF0020E80F800E0754F0A70F2
:1013E000754919609960754E754D764C9A610D215D
:1013F0003970FF213170DFF8F4E129702270724DED
:10140000724A8EF800109F27012406F8047C5D6064
:101410000470DA6007B0BDE8F08F6D4A47F8380015
:10142000137801331370F1E543F82600694DD4E5D4
:101430008B5D032B67D801A252F823F00D1000003A
:101440000D100000911400008B14000059495C4BF2
:1014500080220D2008701A70A2077FF5D8AECFE663
:1014600040F20232914240F05681A98801F07F019A
:10147000042916D86A88A2B94E4C89000C448146CA
:10148000217841F00201217059E701238B55BDE518
:1014900000238B55BAE5A98801F07F01042940F2A9
:1014A0004781444B0F221A70414A012313706EE6A4
:1014B00040287FF668AF44F002040EEBC401029EA0
:1014C0004E60AAB1444A83F800903346403888F809
:1014D000005040334EF834206DE70204029B86F83A
:1014E000009042F0C8020D7003444EF834205FE7CC
:1014F00083F80090029B304A88F80050403840330F
:101500004EF8342057E719F0080F0CBF02230323CD
:101510008B557BE5314A0F211170EAE6304A546859
:10152000002CBED06888B5F804E003E00C325468A3
:10153000002CB6D013888342F8D153887345F5D177
:10154000000A03280CBF2078108903E0254C0220F4
:1015500022706270EA88824280F00C810F490D7817
:10156000402A45F0020E944607EBCE0028BF4FF00C
:10157000400C04EB0C0344600293CCEB02004FEAF6
:101580000C484FF001090022C824E9E6E411FF1FCE
:101590000000FF1F5715FF1F5815FF1FD811FF1F11
:1015A0006C11FF1F6015FF1FFC11FF1F1811FF1F9B
:1015B00094200740C0200740880040008820074052
:1015C00080200740982007401C11FF1F7011FF1F4B
:1015D000D911FF1F0811FF1FC80040006D11FF1F28
:1015E00008360000DC11FF1F0011FF1F8C20074090
:1015F000684A694C12782270ACE76849684B694ABE
:1016000002916949694C6A4D039405964FF00009AF
:1016100088461C4616460495206828B1456800F0A7
:101620005FF92846002DF9D100232360049B306820
:101630001A46002342F8293028B1456800F050F9D5
:101640002846002DF9D100223260029A98F8003025
:101650001146002241F8042B039A0291023B4FF0FD
:10166000000122F81910032B07D8DFE803F0340239
:1016700034024FF0010388F8003009F10109B9F193
:10168000040F04F1040406F1040608F10108C3D1B3
:10169000484B059EDFF83091DFF83081002119704A
:1016A000012518F8013B09F8043B1A0718D4AC00CF
:1016B00044F0020244F00304002347F8323047F8B4
:1016C00034303D4B994505F10105EAD196F800907B
:1016D00089F0010233E64FF0000388F80030CCE7D0
:1016E00000F0DEF8AC0007EB451300F1080200281B
:1016F00037D05A60314B47F8343000F0D1F844F01D
:10170000010307EBC30200F1080100B351602C4A4A
:1017100047F83320CCE7B1F5A06F7FF4C2AE0022CA
:101720004FF001090BE642F221329142F7D0B8E6C0
:101730006A88002A7FF4B5AE224C89000C448146A9
:10174000217821F002012170F9E5022002E7194B0E
:1017500044F001021B7847F83200164A0133137037
:10176000A6E7144B134A1B78AC00013347F834004A
:101770001370C2E74028844628BF4FF0400C04EBAA
:101780000C03CCEB00004FEA0C48029300224FF010
:101790000109D9E5E411FF1FDC11FF1FC011FF1F74
:1017A0005C11FF1FB011FF1FE811FF1F5015FF1F35
:1017B0000811FF1FD911FF1FD420074088004000E7
:1017C000C8004000C0200740C42007400436000085
:1017D0002DE9F041274C00F0ADFF002204F1880014
:1017E00023461A605A60083383424FF00001F8D153
:1017F0002148224A0368DFF89CE0214E214D224F08
:10180000DFF894C0DFF8948043F48023036013680A
:1018100043F04073136003238EF80030A02333702D
:1018200002F5C922C4F3072300F528302B7080305D
:10183000C4F3074310323B70240EFF230470134D92
:101840008CF80030124888F800301370012306F835
:10185000AC3C4FF400140EF8441C7026102107F81D
:101860002C3C2E70046082F8F810AEF1440EBDE8F6
:10187000F08100BF0000FF1F3480044000D800400A
:10188000402107409C200740B020074035E400E09D
:1018900004E100E044210740802007408820074001
:1018A00072B60D480268B2FA82F30B2B10DC4FF0CF
:1018B0000041D94022EA0102026062B6074803EB08
:1018C000C303DB00C2180021C150104651607047AD
:1018D00062B60020704700BF6C07FF1FD003FF1FD8
:1018E0000D4B0E4AC31AA2FB03231B090B2B0CD86A
:1018F0000B4A127852B972B60A484FF0004102689A
:1019000021FA03F31A43026062B67047064A12785E
:10191000002AF0D0FFF7ACBAD003FF1F398EE338AE
:10192000D911FF1F6C07FF1FE411FF1F38B50F4DC2
:10193000286878B143880288C118013393420C7A31
:1019400002D24380204638BDFFF7CAFF002320465D
:101950002B6038BD064B1B782BB10320FFF754FAE0
:1019600028600028E6D14FF0FF3038BDF811FF1F86
:10197000E411FF1F10B5094C206818B143881844C2
:10198000007A10BD064B1B782BB10320FFF73CFA01
:1019900020600028F2D14FF0FF3010BDF811FF1F7A
:1019A000E411FF1F044B054A1B6890881BB11A887D
:1019B0005B88D31A18447047F811FF1F5015FF1F9A
:1019C0000B4B1B789BB110B50A4C206848B1FFF750
:1019D00087FF002303202360FFF716FA30B1FFF7DB
:1019E0007FFF0320FFF710FA0028F8D110BD7047E1
:1019F000E411FF1FF811FF1F2DE9F04FDFF8F890F9
:101A000083B0012289F80020019169B3DFF8EC80EE
:101A1000354F019E8346D8F80000B0B3334D44885B
:101A2000C4F14001B14228BF314604EB010E00224F
:101A30001FFA8EFE2A70761AA0F802E000F1080262
:101A400051B1013C224459441BF8014B02F8014FAB
:101A50008B45F9D1B0F802E0BEF13F0F0BD8244A14
:101A600005211170002ED6D10198002389F800308D
:101A700003B0BDE8F08F4022028001460420FFF74A
:101A800039FA0022C8F80020E9E73A7822B3194C65
:101A9000164D4FF0010A07E0013C16D02A78A2B992
:101AA00000F0B4F93A78BAB10420FFF7CBF907286F
:101AB000F2D889F800A0FFF7F3FEC8F8000000286C
:101AC000ADD10D4B013C1870E8D101234FF0FF3030
:101AD0002B7003B0BDE8F08F00234FF0FF3089F882
:101AE000003003B0BDE8F08FE411FF1FF411FF1FB9
:101AF000EC11FF1F21480100ED11FF1FF011FF1F26
:101B000000B583B002AB012103F8010D1846FFF7C1
:101B100073FF03B05DF804FB38B50E4D0E4C28681A
:101B20000123237028B1408800232370C0F14000B6
:101B300038BD0A4B1B7813B90020207038BD042033
:101B4000FFF780F90728F7D8FFF7AAFE28600028DA
:101B5000E9D1F1E7F011FF1FED11FF1FE411FF1FA5
:101B6000F8B5114B1B788BB1104E114D346801271D
:101B70002F7064B10F4A63880027177021462380B5
:101B80000420FFF7B7F9376000232B70F8BDFFF78B
:101B900087FE084B28B1014604201C70FFF7AAF904
:101BA000F2E71F70F0E700BFE411FF1FF011FF1F05
:101BB000ED11FF1FEC11FF1F38B50E4B1B7873B9E9
:101BC0000D4C216861B103F0FF054B880B800420A8
:101BD000FFF790F9256038BD084B01221A7038BD17
:101BE000FFF75EFE0028F7D00146BDE8384004202C
:101BF000FFF780B9ED11FF1FF011FF1FEC11FF1F60
:101C0000704700BF0368F0B4FBB1002501249D605C
:101C1000DC601B4C1A601C44241104F130056A116D
:101C2000032692009E60174F0679174B47F8241041
:101C300002F1604202F5614205F01F05012000FA41
:101C400005F5E6541560F0BC7047104C236843F46A
:101C50000003236000BF0E4B0E4DA4F58734A4F59E
:101C60009E7401261E60234604609C68002CD0D020
:101C70001033AB420360F8D1002303601846E2E75B
:101C8000008FFCBF7007FF1F30E400E03C80044081
:101C900000700340407103400168A9B10B4BF0B4E0
:101CA0000B441B110A4E0B4F0B4D46F8237003F1EA
:101CB000300202F01F0401235211A340002445F812
:101CC00022308C600460F0BC704700BF008FFCBF06
:101CD0007007FF1F011C000080E100E0024A034B77
:101CE000012111601B6818470C7103407007FF1F2A
:101CF000024A034B012111605B6818471C710340C5
:101D00007007FF1F024A034B012111609B681847AF
:101D10002C7103407007FF1F024A034B0121116021
:101D2000DB6818473C7103407007FF1F08B5FEF7DA
:101D3000B3FBFEF711FC00F069F8FAE700B5064ABC
:101D4000036812885B6883B001A9ADF80420022201
:101D5000984703B05DF804FBD8350000F0B507469E
:101D60008BB0002A33D0012A08BF0A2251B32124A4
:101D700000E0F4B2B1FBF2F502FB1511C8B209297B
:101D800000F1300198BFC8B20AA988BF373021449A
:101D900088BFC0B201F8240C661E2946002DE8D188
:101DA00033B1013CE4B20AAB23442D2203F8242CC6
:101DB0003B6801AA11195B683846C4F122029847B2
:101DC0000BB0F0BD30228DF825202124E8E7036810
:101DD000C9B21B6898470BB0F0BD00BF0029BABF5D
:101DE00049422D2300230A22FFF7B8BFFFF7E8BDC1
:101DF000FFF7B6BEFFF790BE08461146FFF7FCBDE1
:101E00000846FFF77DBE00BF704700BF38B52C4CB9
:101E1000237803B138BD01232370FFF7C3FD0028E9
:101E200042D100F065F900283BD100F0F7F9002815
:101E300034D100F089FA70BB00F002FB40BB00F027
:101E40007BFB10BB00F0F4FBE0B900232370EFF341
:101E50000583002BDED1EFF3108172B6194B1868A1
:101E600028B3194C227812BB45691D6001232370E9
:101E70000DB3AA6101B962B600254577836898471A
:101E80002570C7E700F09CFDDFE700F097FDD9E77C
:101E900000F092FDD3E700F08DFDCDE700F088FD66
:101EA000C7E700F083FDC0E7FFF7AEFFB9E7002901
:101EB000B0D162B638BD054B1D600029DCD1DAE730
:101EC000FD11FF1F1015FF1F1415FF1F0C15FF1F1D
:101ED00030B42948294A2A4B2A4D6024E121047054
:101EE00011701B78284C082B30D00A2B2748284922
:101EF00037D00C2B0CBF35225D2212232A602360C1
:101F000002600B60234B24491B78244ABBB1012398
:101F10000B601360224B23491B78234A012B26D9DF
:101F2000042B0FD9082B1ED9102B94BF862387238F
:101F30000B6013601D4B01221A7030BC70470B60A0
:101F40001360E7E784230B601360F3E700F58E204E
:101F50000F490830212213232A60236002600B609E
:101F6000D0E73922F7E785230B601360E2E780238F
:101F70000B601360DEE700BF0040074001400740F0
:101F80009007FF1F08B003400CB0034008B00B409F
:101F90000CB00B40FF11FF1F20B0034020B00B40DE
:101FA0009107FF1F24B0034024B00B40FE11FF1F18
:101FB00008B5104C08E0236859050DD423681A05AC
:101FC0000FD42368DB0411D423685803F3D5FEF73C
:101FD000D3FF23685905F1D500F09AF823681A0554
:101FE000EFD500F02BF92368DB04EDD500F0BCF948
:101FF000EAE700BF3480044008B5FFF7D9FF00BF0F
:10200000014B10221A80704700200540704700BF26
:10201000094908B50B6830B16A461844A2F5005268
:10202000904202D20860184608BD00F0D7FC0C238D
:1020300003604FF0FF3008BD9407FF1F084A137874
:10204000802B01D0002070470649074B07480860E5
:10205000002119701378802BFCD00120704700BF3D
:1020600003E007404480044001E0074000002822CC
:10207000094A1378012B01D00020704703F18043F7
:1020800003F5FC23602119701378802BFCD1034BDE
:10209000034A1A600120704703E00740448004406F
:1020A00000000602F0B44D1E2E46002400E001346C
:1020B000B0FBF2F302FB1300092800F130078ABFDE
:1020C0003730F8B2C0B206F8010F1846002BEED137
:1020D0000A1953704CB1107815F8016F287001334C
:1020E000E01A834202F80169F5DB0846F0BC70474C
:1020F000054A064B10781B78C0B2DBB2984238BF55
:102100004030C01A704700BF0412FF1F0512FF1FA6
:10211000F0B4384B1A7912F0300F2CD072B6997D8A
:1021200001F0FF0200293DD062B6334F33493878C1
:102130000D78334E1C46C0B2EDB2431C402BE17902
:1021400028BF0023AB4202F1FF32C9B21CBFF154D9
:10215000184612F0FF02F0D12A4B1B68C2B23A7047
:102160004BB1A84236BFC5F14005401B4019272896
:10217000C4BF01221A701F49CA78D2B2150616D4FC
:1021800052060DD51B4B1B795B0609D51E4B1F490B
:102190001B6800220A7003B11A70164B3C22DA70D9
:1021A000F0BC70474022D9795A7462B6E3E70B79E4
:1021B0001C06E5D5164B174E1C783378E4B2DBB21B
:1021C0009C420ED0144D01E0A3420AD00133402BB3
:1021D00028BF00230879E85CC0B2C871087D0728D1
:1021E000F2D9DBB2034933700B79180644BF7C2364
:1021F000CB70C5E700A006400412FF1F0512FF1FA9
:102200004812FF1F0012FF1F8C12FF1F8812FF1FB2
:102210009012FF1F8912FF1F0812FF1F054A064B6D
:1022200010781B78C0B2DBB2984238BF4030C01A79
:10223000704700BF0413FF1F9912FF1FF0B4384B03
:102240001A7912F0300F2CD072B6997D01F0FF028E
:1022500000293DD062B6334F334938780D78334E7C
:102260001C46C0B2EDB2431C402BE17928BF0023CD
:10227000AB4202F1FF32C9B21CBFF154184612F052
:10228000FF02F0D12A4B1B68C2B23A704BB1A84290
:1022900036BFC5F14005401B40192728C4BF0122A5
:1022A0001A701F49CA78D2B2150616D452060DD537
:1022B0001B4B1B795B0609D51E4B1F491B6800226F
:1022C0000A7003B11A70164B3C22DA70F0BC7047EA
:1022D0004022D9795A7462B6E3E70B791C06E5D53A
:1022E000164B174E1C783378E4B2DBB29C420ED00A
:1022F000144D01E0A3420AD00133282B28BF00234C
:102300000879E85CC0B2C871087D0728F2D9DBB251
:10231000034933700B79180644BF7C23CB70C5E7A3
:1023200000B006400413FF1F9912FF1FC412FF1FC5
:102330009412FF1F0813FF1F9812FF1F0C13FF1F9B
:102340000513FF1F9C12FF1F054A064B10781B78D0
:10235000C0B2DBB2984238BF4030C01A704700BFED
:102360001413FF1F1513FF1F30B42B4B1A7994065B
:102370001FD52A48DA790378294901333F2B097898
:10238000C8BF00238B42D2B203D0264CD9B2E2544C
:102390000170254A116861B1244A1278D2B2934281
:1023A00036BFC2F140029B1A9B18272BC4BF0123E2
:1023B0000B70194AD378DBB2180611D45A060DD522
:1023C000154B1B795B0609D5194B1A491B6800226E
:1023D0000A7003B11A70104B2C22DA7030BC7047AF
:1023E00011790906EAD5144910480C780178C9B268
:1023F0008C420DD04A1C272A84BF00210A460F4D6B
:10240000054C98BFD1B2AA5CD2B2E2710170D5E797
:102410006C21D170D2E700BF00C006401413FF1F2B
:102420001513FF1F4013FF1F1013FF1F8113FF1F02
:102430008413FF1F8013FF1F8813FF1F1813FF1F34
:10244000054A064B10781B78C0B2DBB2984238BF01
:102450004030C01A704700BF9013FF1F9113FF1F39
:1024600030B42B4B1A7994061FD52A48DA790378B1
:10247000294901333F2B0978C8BF00238B42D2B2D0
:1024800003D0264CD9B2E2540170254A116861B1DB
:10249000244A1278D2B2934236BFC2F140029B1A4C
:1024A0009B18272BC4BF01230B70194AD378DBB2CA
:1024B000180611D45A060DD5154B1B795B0609D5A4
:1024C000194B1A491B6800220A7003B11A70104B8D
:1024D0002C22DA7030BC704711790906EAD514490C
:1024E00010480C780178C9B28C420DD04A1C272ABA
:1024F00084BF00210A460F4D054C98BFD1B2AA5C9B
:10250000D2B2E2710170D5E76C21D170D2E700BF81
:1025100000D006409013FF1F9113FF1FBC13FF1F35
:102520008C13FF1FFD13FF1F0014FF1FFC13FF1F61
:102530000414FF1F9413FF1F054A064B10781B78E5
:10254000C0B2DBB2984238BF4030C01A704700BFFB
:102550000C14FF1F0D14FF1F30B42B4B1A79940677
:102560001FD52A48DA790378294901333F2B0978A6
:10257000C8BF00238B42D2B203D0264CD9B2E2545A
:102580000170254A116861B1244A1278D2B293428F
:1025900036BFC2F140029B1A9B18272BC4BF0123F0
:1025A0000B70194AD378DBB2180611D45A060DD530
:1025B000154B1B795B0609D5194B1A491B6800227C
:1025C0000A7003B11A70104B2C22DA7030BC7047BD
:1025D00011790906EAD5144910480C780178C9B276
:1025E0008C420DD04A1C272A84BF00210A460F4D79
:1025F000054C98BFD1B2AA5CD2B2E2710170D5E7A6
:102600006C21D170D2E700BF00A00E400C14FF1F58
:102610000D14FF1F3814FF1F0814FF1F7914FF1F2C
:102620007C14FF1F7814FF1F8014FF1F1014FF1F5E
:10263000054A064B10781B78C0B2DBB2984238BF0F
:102640004030C01A704700BF8814FF1F8914FF1F55
:1026500030B42C4B5A6894021FD52B48DA680378A3
:102660002A4901333F2B0978C8BF00238B4204D08D
:10267000274CD2B2D9B2E2540170264A116861B136
:10268000254A1278D2B2934236BFC2F140029B1A59
:102690009B18272BC4BF01230B701A4A936818029A
:1026A00002D55268110211D45A020DD5154B5B6840
:1026B0005B0209D5194B1A491B6800220A7003B145
:1026C0001A70184B00221A6030BC7047164A124923
:1026D00010780A78D2B290420DD00132272A84BFF6
:1026E00000200246114D074C98BFD0B2AA5CD2B26E
:1026F000E2600870D8E70E480A4A0024012104600D
:102700001160D1E700400C408814FF1F8914FF1F9F
:10271000B414FF1F8414FF1FF514FF1FF814FF1FCC
:10272000F414FF1F58018843FC14FF1F8C14FF1F73
:102730005C01884310B584B072B6FFF77FFC184A7D
:10274000184B19491160702280211A701A461970AD
:1027500013781B06FCD5154B1C68FFF789FC62B685
:10276000134B9C429CBF04EB840464002046114C34
:1027700001A90A22FFF796FC01A92046002311F8BF
:10278000012B01333AB10A2B20F8022FF7D116237F
:10279000237004B010BD5B00DBB2237004B010BD29
:1027A0000400024000000240000007410C0002400B
:1027B0007F9698002408FF1F10B4EFF3108272B6C2
:1027C000437F33B9017F012908D0032910D00123A9
:1027D000437702B962B65DF8044B7047114C21682B
:1027E000A1B1114943610B68836108605861EEE74C
:1027F0000E4C216881B10E4943610B68836108600A
:1028000058610C4B4FF080511960E0E7064B416175
:10281000816120601860DAE7054B416181612060C9
:102820001860EEE71015FF1F0C15FF1F0015FF1FA6
:102830000415FF1F04ED00E010B4047F4160022C7A
:10284000C26003D05DF8044BFFF7B6BF83685DF844
:10285000044B184770B5EFF3108272B60C4C206829
:1028600080B10C4E00254369236073B19D6102B9AC
:1028700062B6457783689847EFF3108272B6206896
:102880000028F0D102B962B670BD3360EFE700BF37
:102890000015FF1F0415FF1FFFF7DCBF184A30B4F7
:1028A0001468002C27D0036821688B420ED2CB1A03
:1028B00000218460C1602360E06010600223037522
:1028C00030BC704711688B42144608D3A2685B1A6B
:1028D0000360002AF6D18260C460A060EEE7D2688F
:1028E000C2608460E060C568CB1A0222A8602360E1
:1028F000027530BC70478460C4601060DEE700BFC2
:102900000815FF1FF8B5224E34682CB32368002B3E
:102910003AD1204F1D4604E03468ECB12368002B07
:1029200032D1A36803B1DD60206933600368257587
:102930001B68BB4221D1037F4560022BC46020D0BD
:10294000FFF73AFF6368002BE6D023602046FFF7CD
:10295000A5FF3468002CE1D1EFF3108372B60E4A64
:1029600000211068116003B962B628B18468FFF7CE
:1029700095FF20460028F9D1F8BD2246002198474E
:10298000E0E783689847DDE7013B2360E4E700BFA9
:102990000815FF1F392800001815FF1F024A136889
:1029A00001331360FFF7AEBF0011FF1F704700BF78
:1029B000704700BF704700BF704700BF704700BF3F
:1029C000704700BF0B460146184600F001B800BF33
:1029D00013460A460146022000F004BB014B18686A
:1029E000704700BF680CFF1F70B50F4E0F4D761B70
:1029F000B61018BF002405D0013455F8043B9847A1
:102A0000A642F9D10A4E0B4D761B00F029FEB610F6
:102A100018BF002406D0013455F8043B9847A6425D
:102A2000F9D170BD70BD00BF6C3600006C3600007F
:102A30007C3600006C360000024B0146186800F03E
:102A400003B800BF680CFF1F2DE9F04F01F10B0523
:102A5000162D83B0064640F29F8035F0070500F141
:102A6000BF80A94200F2BC8000F0A6FAB5F5FC7F59
:102A7000C0F09C826B0A00F0BA80042B00F28381C4
:102A8000A80900F1390E4FEA4E033830C44F07EB66
:102A90008303A3F108015C68A14207D1ACE0002ADE
:102AA00080F2AC80E468A14200F0A680636823F065
:102AB00003035A1B0F2AF2DDB9493C6901F1080EE4
:102AC000744500F0B381636823F003035A1B0F2A97
:102AD00000F39981002AC1F814E0C1F810E080F2F7
:102AE0009E80B3F5007F80F06781DB0803F1010C65
:102AF00001229B1002FA03F34A6851F83C80C4F8A3
:102B0000088001EBCC091A43A9F10803E3604A608D
:102B100041F83C40C8F80C40831001249C4094428A
:102B200000F28A80144206D120F0030064001442AF
:102B300000F10400FAD007EBC009CC468046DCF86F
:102B40000C108C4507D173E1002A80F28181C9689D
:102B50008C4500F06D814B6823F003035A1B0F2A4C
:102B6000F2DD0C46D1F80CC054F8088F4B1945F033
:102B700001054D6042F00101C8F80CC03046CCF8A8
:102B800008807B613B61C3F80CE0C3F808E0596042
:102B90009A5000F013FA1FE0102921D800F00CFA27
:102BA0001025062302207E4F07EB8303A3F10802C2
:102BB0005C68944200F045816368E168A56823F091
:102BC0000303234430465A68E96042F001028D60F5
:102BD0005A6000F0F3F90834204603B0BDE8F08FE6
:102BE00000240C232046336003B0BDE8F08F80231F
:102BF0004FF0400E3F2049E770465DE72344E1680F
:102C00005A68A56842F00102E96030468D605A605A
:102C100000F0D4F90834204603B0BDE8F08F234417
:102C200030465A6842F001025A6000F0C7F9083491
:102C3000204603B0BDE8F08FBC68636823F003084A
:102C4000A84504D3C5EB08030F2B00F38C80554B2C
:102C5000DFF860911A68D9F8003001332A4404EB98
:102C6000080A00F0608102F580520F3222F47F6280
:102C700022F00F0211463046019200F0A1F9B0F1A6
:102C8000FF3F8346019A00F05881824500F2FC80A4
:102C9000454B1968DA451144196000F05381D9F8A1
:102CA0000000DFF810E101301BBFCAEB0B0A5144F2
:102CB000CEF800B019601BF0070100F01781C1F1D8
:102CC0000800C1F58051834408315A44C2F30B0215
:102CD000C2EB010949463046019300F071F9431CEB
:102CE000019B00F03F81CBEB00024A4442F001021D
:102CF0001968C7F808B04944BC42CBF804201960F1
:102D0000DFF8A49016D0B8F10F0F40F2FD80626892
:102D1000A8F10C0323F00703E01802F001024FF0C2
:102D2000050E1A430F2B6260C0F804E0C0F808E0FB
:102D300000F21C811D4BBC681A68914288BF196063
:102D40001B4B1A689142626888BF196022F0030227
:102D50009542A2EB050301D80F2B04DC304600F0AE
:102D60002DF9002438E7621943F0010345F001050D
:102D700065603046BA60536000F020F908342046A0
:102D800003B0BDE8F08F142B71D9542B00F2A4804E
:102D9000280B00F16F0E4FEA4E036E3076E600BF4F
:102DA0006C0CFF1F2415FF1F2815FF1F2015FF1F88
:102DB0001C15FF1F7810FF1F5A0A042A5ED9142A17
:102DC00000F2B38002F15C0149005B3207EB810C39
:102DD00057F82110DFF8DC81ACF1080C8C4500F0CD
:102DE00088804A6822F00302934202D289688C45A7
:102DF000F7D1D1F80CC07A68C4F80CC0A160CCF847
:102E00000840CC6088E6631942F0010745F00105EF
:102E1000656030464B610B61C3F80CE0C3F808E015
:102E20005F609A50083400F0C9F8D5E64A6873E646
:102E300008F1010818F0030F0CF1080C7FF47FAEC5
:102E400030E0DC68A34208BF02303FF435AEB3E6A1
:102E50000B440C465A68C96854F8085F42F00102F6
:102E60005A603046E9608D6000F0A8F8B4E603F1DE
:102E70005C0E03F15B004FEA4E0307E69A0902F18C
:102E8000390149003832A1E7BC424A4B3FF400AF58
:102E90009C68626822F003025AE759F8083999459C
:102EA00040F0828010F0030F00F1FF30F5D17B6815
:102EB00023EA04037B6064009C423FF6BDAE002C15
:102EC0003FF4BAAE1C4240467FF435AE64001C426B
:102ED00000F10400FAD02EE6B3F5AA7F18D8E80B6B
:102EE00000F1780E4FEA4E037730CFE54FF4805172
:102EF000EBE60121D8F80430921001FA02F21A43ED
:102F0000C8F80420614677E70123CBF8043025E7B1
:102F100040F25452934220D8A80C00F17D0E4FEAA3
:102F20004E037C30B2E51032A4E6542A26D81A0BA0
:102F300002F16F0149006E3248E7BC68626822F016
:102F4000030205E7CAF30B0000287FF4A8AE424451
:102F5000BB6842F001025A60ECE6FE234FF07F0EA0
:102F60007E2093E501224FF00009C1E604F108013B
:102F7000304600F0FBF8D9F80010DBE6B2F5AA7F86
:102F800005D8DA0B02F17801490077321EE740F2EA
:102F900054518A4205D89A0C02F17D0149007C32D5
:102FA00014E7FE217E2211E77B6884E7E808431CD2
:102FB0005B00F8E56C0CFF1F704700BF704700BF57
:102FC00038B5074C0023054608462360FFF720F874
:102FD000431C00D038BD2368002BFBD02B6038BDCC
:102FE0006415FF1F2DE9F047254C2568D5F84841A9
:102FF0000646884692469946C4B360681F2817DC87
:10300000431C76B104EB80050122C5F888A0D4F8F2
:10301000881182401143022EC4F88811C5F8089126
:103020001ED00230636044F820800020BDE8F087A5
:10303000144B03B34FF4C870FFF7FEFC0446D0B145
:10304000D5F84831002780E88800C5F8484138465F
:103050000123C4F88871C4F88C71002EE1D0D1E747
:10306000D4F88C110A43C4F88C21DAE705F5A6746C
:10307000C5F84841C1E74FF0FF30BDE8F08700BF19
:103080005C360000392A0000024B13B1024800F000
:1030900005B8704700000000A93000000023014679
:1030A0001A461846FFF79EBF38B5074D074C2C1B34
:1030B000A41005D0013C55F8043D9847002CF9D1E7
:1030C000BDE8384000F0DABA00000000000000005F
:1030D000F8B5234F0C460646FFF76EFFBB685D68E8
:1030E00025F00305291B01F6EF7121F47F6121F022
:1030F0000F01A1F58054B4F5805F07DB0021304655
:10310000FFF75EFFBB682B44984204D03046FFF7C0
:1031100055FF0020F8BD61423046FFF751FF0130F6
:103120000DD0104BBA6819682D1B45F001053046CB
:10313000091B55601960FFF741FF0120F8BD002110
:103140003046FFF73DFFBA68831A0F2BDEDD064CD1
:103150000449246843F00103001B53600860D5E76D
:103160006C0CFF1F2815FF1F7810FF1F002945D08A
:103170002DE9F0410D468046FFF71EFF55F8047C0F
:103180006A4927F00103A5F10804E2188E68506827
:10319000B24220F0030062D0FE0750600BD455F815
:1031A000087CE41B01F1080EA56875453B446FD00F
:1031B000E768EF60BD6015186D68ED0742D543F014
:1031C00001026260E350B3F5007F18D2DB085A1C9D
:1031D0004D6851F83270A76001209B1000FA03F38C
:1031E00001EBC2001D430838E0604D6041F83240F9
:1031F000FC604046BDE8F041FFF7E0BE70475A0A68
:10320000042A53D89A0902F139077F0002F13805E0
:1032100001EB870051F827204449083890424DD0EF
:10322000516821F003018B4202D292689042F7D19B
:10323000D068E060A2608460D4604046BDE8F041A0
:10324000FFF7BCBE95683A4FBD4203443FD0D068FB
:10325000E86043F0010285606260E350B3E7FF0776
:10326000034407D455F8082CA41A1344A068E26854
:10327000C26090602F4A126843F001009342606080
:103280008C60B6D32C4B40461968FFF721FFB0E79E
:1032900011184968C90744D49168D268CA600344C8
:1032A00043F0010091606060E350A2E7142A17D850
:1032B00002F15C077F0002F15B05A9E7AA104B68E9
:1032C000012505FA02F213434B600246B1E743F0D1
:1032D00001024C610C61E560A5606260E35088E723
:1032E000542A06D81A0B02F16F077F0002F16E050F
:1032F0008EE7B2F5AA7F06D8DA0B02F178077F00D5
:1033000002F1770584E740F25450824206D89A0CC5
:1033100002F17D077F0002F17C0579E7FE277E251B
:1033200076E743F001026260E35062E76C0CFF1F36
:10333000740CFF1F7410FF1F2415FF1F564D4450BF
:10334000565F317C315F564D4450560D0A000000E7
:103350007C000000626C696E6B436F756E74203D7B
:103360002000FFFF564D4450455F00003A323A00BE
:103370003A0000005F564D4450450000564D445001
:10338000435F00005F564D4450430D0A00000000AB
:103390004572726F723A20417474656D7074207456
:1033A0006F20736574206120726561642D6F6E6C8F
:1033B00079207661726961626C65206F7220646148
:1033C00074612074797065206E6F742073757070ED
:1033D0006F727465640D0A004008FE4340A004400B
:1033E0004408FE4344A004400018FE4300C00440CB
:1033F0003000FE43309004403400FE4334900440DB
:103400001C18FE431CC004401018FE4310C00440AA
:103410000818FE4308C004400C18FE430CC00440CA
:103420000C10FE430CB004401010FE4310B00440DA
:103430001810FE4318B004401C10FE431CB004409A
:103440001410FE4314B004400418FE4304C00440AA
:103450000010FE4300B004400008FE4300A00440FA
:103460000408FE4304A004400C08FE430CA00440E2
:103470000808FE4308A004401418FE4314C004408A
:103480001818FE4318C004400410FE4304B0044062
:103490000810FE4308B004406820FE4368D0044092
:1034A0001400FE43149004403800FE43389004405A
:1034B0003C00FE433C9004404000FE4340900440EA
:1034C0004808FE4348A004404C08FE434CA004407A
:1034D0002808FE4328A004402C08FE432CA00440EA
:1034E0006020FE4360D004406420FE4364D004406A
:1034F0002010FE4320B004402410FE4324B00440BA
:103500002810FE4328B004402C10FE432CB0044089
:103510004400FE43449004407000FE437090044019
:103520007400FE43749004406800FE4368900440B9
:103530005008FE4350A004405808FE4358A00440E1
:103540005C08FE435CA004405408FE4354A00440C1
:103550002018FE4320C004402418FE4324C0044029
:103560001008FE4310A004401408FE4314A00440B9
:103570003818FE4338C004403418FE4334C00440B9
:103580003018FE4330C004403C18FE433CC00440A9
:103590002C18FE432CC004402820FE4328D00440B1
:1035A0002C20FE432CD004400020FE4300D00440D9
:1035B0000420FE4304D004400820FE4308D0044009
:1035C0000C20FE430CD004401020FE4310D00440D9
:1035D0001420FE4314D004400D0AFFFF0000000039
:1035E00000000000011E0000F91D0000F51D000094
:1035F000F11D000039070000310700003507000009
:10360000ED1D000000151915000100009807FF1FAF
:103610001200000000020000C407FF1F430000006A
:10362000000300002008FF1F000000000103090440
:10363000AC07FF1F00000000020309040808FF1F79
:1036400000000000030309042408FF1F000000001D
:103650000000000000000000000000004008FF1F04
:10366000F8B500BFF8BC08BC9E4670478930000022
:0C36700035040000CD060000C90A00006F
:04367C00F8B500BFDE
:103680000000000001000000640000006400000071
:103690000100000064000000220000002100000082
:1036A0002700000026000000250000002400000084
:1036B00023000000F106000011070000FFFFFFFFDC
:1036C000011C0000011C0000011C0000011C000086
:1036D000E435000000000000E803000000000000E6
:1036E0000A0400006815FF1F1201100102000040CB
:1036F000C01683047702010203010000180354007E
:10370000650065006E007300790064007500690053
:103710006E006F0009024300020100C0320904007C
:10372000000102020100052400100105240101012D
:103730000424020605240600010705820310004048
:1037400009040100020A000000070503024000000E
:103750000705840240000000160355005300420094
:103760002000530065007200690061006C000000D9
:10377000040309040C030000000000000000000026
:103780000000000000000000000000000000000039
:10379000000000002C0BFF1F940BFF1FFC0BFF1FF2
:1037A0000000000000000000000000000000000019
:1037B0000000000000000000000000000000000009
:1037C00000000000000000000000000000000000F9
:1037D00000000000000000000000000000000000E9
:1037E00000000000000000000000000000000000D9
:1037F00000000000000000000000000000000000C9
:1038000000000000000000000000000000000000B8
:1038100000000000000000000000000000000000A8
:103820000000000000000000000000000000000098
:103830000000000000000000010000000000000087
:103840000E33CDAB34126DE6ECDE05000B0000004C
:103850000000000000000000000000000000000068
:103860000000000000000000000000000000000058
:103870000000000000000000000000000000000048
:103880000000000000000000000000000000000038
:103BB00000000000000000004008FF1F000000009F
:103BC000000000006C0CFF1F6C0CFF1F740CFF1F2B
:103BD000740CFF1F7C0CFF1F7C0CFF1F840CFF1F4D
:103BE000840CFF1F8C0CFF1F8C0CFF1F940CFF1FFD
:103BF000940CFF1F9C0CFF1F9C0CFF1FA40CFF1FAD
:103C0000A40CFF1FAC0CFF1FAC0CFF1FB40CFF1F5C
:103C1000B40CFF1FBC0CFF1FBC0CFF1FC40CFF1F0C
:103C2000C40CFF1FCC0CFF1FCC0CFF1FD40CFF1FBC
:103C3000D40CFF1FDC0CFF1FDC0CFF1FE40CFF1F6C
:103C4000E40CFF1FEC0CFF1FEC0CFF1FF40CFF1F1C
:103C5000F40CFF1FFC0CFF1FFC0CFF1F040DFF1FCB
:103C6000040DFF1F0C0DFF1F0C0DFF1F140DFF1F78
:103C7000140DFF1F1C0DFF1F1C0DFF1F240DFF1F28
:103C8000240DFF1F2C0DFF1F2C0DFF1F340DFF1FD8
:103C9000340DFF1F3C0DFF1F3C0DFF1F440DFF1F88
:103CA000440DFF1F4C0DFF1F4C0DFF1F540DFF1F38
:103CB000540DFF1F5C0DFF1F5C0DFF1F640DFF1FE8
:103CC000640DFF1F6C0DFF1F6C0DFF1F740DFF1F98
:103CD000740DFF1F7C0DFF1F7C0DFF1F840DFF1F48
:103CE000840DFF1F8C0DFF1F8C0DFF1F940DFF1FF8
:103CF000940DFF1F9C0DFF1F9C0DFF1FA40DFF1FA8
:103D0000A40DFF1FAC0DFF1FAC0DFF1FB40DFF1F57
:103D1000B40DFF1FBC0DFF1FBC0DFF1FC40DFF1F07
:103D2000C40DFF1FCC0DFF1FCC0DFF1FD40DFF1FB7
:103D3000D40DFF1FDC0DFF1FDC0DFF1FE40DFF1F67
:103D4000E40DFF1FEC0DFF1FEC0DFF1FF40DFF1F17
:103D5000F40DFF1FFC0DFF1FFC0DFF1F040EFF1FC6
:103D6000040EFF1F0C0EFF1F0C0EFF1F140EFF1F73
:103D7000140EFF1F1C0EFF1F1C0EFF1F240EFF1F23
:103D8000240EFF1F2C0EFF1F2C0EFF1F340EFF1FD3
:103D9000340EFF1F3C0EFF1F3C0EFF1F440EFF1F83
:103DA000440EFF1F4C0EFF1F4C0EFF1F540EFF1F33
:103DB000540EFF1F5C0EFF1F5C0EFF1F640EFF1FE3
:103DC000640EFF1F6C0EFF1F6C0EFF1F740EFF1F93
:103DD000740EFF1F7C0EFF1F7C0EFF1F840EFF1F43
:103DE000840EFF1F8C0EFF1F8C0EFF1F940EFF1FF3
:103DF000940EFF1F9C0EFF1F9C0EFF1FA40EFF1FA3
:103E0000A40EFF1FAC0EFF1FAC0EFF1FB40EFF1F52
:103E1000B40EFF1FBC0EFF1FBC0EFF1FC40EFF1F02
:103E2000C40EFF1FCC0EFF1FCC0EFF1FD40EFF1FB2
:103E3000D40EFF1FDC0EFF1FDC0EFF1FE40EFF1F62
:103E4000E40EFF1FEC0EFF1FEC0EFF1FF40EFF1F12
:103E5000F40EFF1FFC0EFF1FFC0EFF1F040FFF1FC1
:103E6000040FFF1F0C0FFF1F0C0FFF1F140FFF1F6E
:103E7000140FFF1F1C0FFF1F1C0FFF1F240FFF1F1E
:103E8000240FFF1F2C0FFF1F2C0FFF1F340FFF1FCE
:103E9000340FFF1F3C0FFF1F3C0FFF1F440FFF1F7E
:103EA000440FFF1F4C0FFF1F4C0FFF1F540FFF1F2E
:103EB000540FFF1F5C0FFF1F5C0FFF1F640FFF1FDE
:103EC000640FFF1F6C0FFF1F6C0FFF1F740FFF1F8E
:103ED000740FFF1F7C0FFF1F7C0FFF1F840FFF1F3E
:103EE000840FFF1F8C0FFF1F8C0FFF1F940FFF1FEE
:103EF000940FFF1F9C0FFF1F9C0FFF1FA40FFF1F9E
:103F0000A40FFF1FAC0FFF1FAC0FFF1FB40FFF1F4D
:103F1000B40FFF1FBC0FFF1FBC0FFF1FC40FFF1FFD
:103F2000C40FFF1FCC0FFF1FCC0FFF1FD40FFF1FAD
:103F3000D40FFF1FDC0FFF1FDC0FFF1FE40FFF1F5D
:103F4000E40FFF1FEC0FFF1FEC0FFF1FF40FFF1F0D
:103F5000F40FFF1FFC0FFF1FFC0FFF1F0410FF1FBC
:103F60000410FF1F0C10FF1F0C10FF1F1410FF1F69
:103F70001410FF1F1C10FF1F1C10FF1F2410FF1F19
:103F80002410FF1F2C10FF1F2C10FF1F3410FF1FC9
:103F90003410FF1F3C10FF1F3C10FF1F4410FF1F79
:103FA0004410FF1F4C10FF1F4C10FF1F5410FF1F29
:103FB0005410FF1F5C10FF1F5C10FF1F6410FF1FD9
:0C3FC0006410FF1F00000200FFFFFFFF65
:00000001FF
