:100000000C94FB000C9423010C9423010C94230109
:100010000C9423010C9423010C9423010C942301D0
:100020000C9423010C9423010C94D2090C943C06EB
:100030000C9423010C9423010C9423010C942301B0
:100040000C9423010C9423010C9423010C942301A0
:100050000C9423010C9423010C9423010C94F604BA
:100060000C9423010C9423010C9423010C94230180
:100070000C9423010C9423010C9423010C94230170
:100080000C9423010C9423010C9423010C94230160
:100090000C9423010C9423010C9423010C94230150
:1000A0000C9423010C9423010C9423017C017F0107
:1000B0006E0172017801A001A001A00183018701F6
:1000C0008B0191019501A0019B010000000024001B
:1000D00027002A002D003000000000002300260029
:1000E00029002C002F000000000200090F0000036F
:1000F0000401000C000000000000000000000000EF
:100100000000000000080B000202020100090400C8
:100110000001020200000524001001052401010174
:10012000042402060524060001070581031000408F
:1001300009040100020A0000000705020240000055
:10014000070583024000000403090412010002EFC6
:100150000201404123378000010102030141726422
:1001600075696E6F204C4C430041726475696E6F07
:10017000204D6963726F0000C2010001001100117F
:10018000000E000096000019003900390037000009
:100190004B0000360075007500730080250000726A
:1001A00000EC00EC00E90000000000250028002B16
:1001B000002E0031000404040404030405020202BA
:1001C00002040302020202060606060606040402F0
:1001D0000202040404080201104080401020408004
:1001E000408008020401804020100201108010208D
:1001F00040402000150D11241FBECFEFDAE0DEBF16
:10020000CDBF22E0AAEAB1E001C01D92AE3AB2072A
:10021000E1F711E0A0E0B1E0EEE4FCE102C00590FE
:100220000D92AA3AB107D9F710E0CBEFD0E004C0A5
:100230002197FE010E94060ECA3FD107C9F70E940E
:10024000440A0C94250E0C940000CF93DF931F9268
:10025000CDB7DEB76983DC01ED91FC910280F381BB
:10026000E02D41E050E0BE016F5F7F4F09950F9098
:10027000DF91CF91089583E08093E9008091F200AF
:10028000882319F08AE38093E8000895FC018485AF
:10029000958597FD0BC09FB7F89482E08093E900A5
:1002A0008091F2009FBF90E0019608959FB7F89467
:1002B00082E08093E9008091F2009FBF90E0089572
:1002C000089580E090E0089590E0FC013197EF30D0
:1002D000F105B0F5EA5AFF4F0C94060E80918000AC
:1002E0008F7703C0809180008F7D80938000089578
:1002F00080918000877FF9CF84B58F7702C084B565
:100300008F7D84BD0895809190008F7707C0809184
:1003100090008F7D03C080919000877F8093900034
:1003200008958091C0008F7703C08091C0008F7DB9
:100330008093C00008958091C200877F8093C2009F
:100340000895CF93DF93282F30E0F901EA51FF4F52
:100350008491F901EC52FE4FD491F901EB54FE4F18
:10036000C491CC2391F081110E946401EC2FF0E044
:10037000EE0FFF1FE852FF4FA591B491EC91ED23D2
:1003800081E090E021F480E002C080E090E0DF9125
:10039000CF9108951F93CF93DF93282F30E0F90179
:1003A000EA51FF4F8491F901EC52FE4FD491F901CB
:1003B000EB54FE4FC491CC23C9F0162F81110E943B
:1003C0006401EC2FF0E0EE0FFF1FE955FE4FA59101
:1003D000B4918FB7F894111105C09C91ED2FE09561
:1003E000E92302C0EC91ED2BEC938FBFDF91CF910D
:1003F0001F910895CF93DF9390E0FC01EC52FE4FE4
:100400002491FC01EB54FE4F8491882361F190E02C
:10041000880F991FFC01E653FF4FC591D491FC0151
:10042000E955FE4FA591B491611109C09FB7F894A9
:100430008881209582238883EC912E230BC0623023
:1004400061F49FB7F8943881822F80958323888345
:10045000EC912E2B2C939FBF06C08FB7F894E881A8
:100460002E2B28838FBFDF91CF9108953FB7F8944B
:100470008091AF019091B001A091B101B091B20112
:1004800026B5A89B05C02F3F19F00196A11DB11DEF
:100490003FBFBA2FA92F982F8827820F911DA11D2A
:1004A000B11DBC01CD0142E0660F771F881F991F67
:1004B0004A95D1F708958F929F92AF92BF92CF92B3
:1004C000DF92EF92FF926B017C010E9436024B019A
:1004D0005C01C114D104E104F104F1F00E94360280
:1004E000DC01CB0188199909AA09BB09883E934010
:1004F000A105B10570F321E0C21AD108E108F108A5
:1005000088EE880E83E0981EA11CB11CC114D10492
:10051000E104F10419F7DDCFFF90EF90DF90CF9069
:10052000BF90AF909F908F900895DC019896ED91C9
:10053000FC919997908197968C91809589238083DF
:1005400008950F931F93CF93DF938C01C7E3D1E0FE
:100550006991662349F0D801ED91FC910280F38105
:10056000E02DC8010995F4CFDF91CF911F910F9134
:100570000895FC0194A182A5672B21F49E7F94A38A
:1005800061E003C0916094A360E08F700C94CA0195
:10059000CF93DF93EC018BA561E08F700E94CA01BD
:1005A0008AA561E08F700E94FA018BA561E08F70CF
:1005B0000E94FA018AA560E082958F70DF91CF9149
:1005C0000C94FA0120E001972FEF8F3F9207D9F7A3
:1005D0000895CF93DF93EC01E881F9810190F081D8
:1005E000E02D09958BA560E08F700E94CA018FE90C
:1005F0009FE00197F1F700C000008BA561E08F70CC
:100600000E94CA019FEF21EE84E09150204080407B
:10061000E1F700C000008CA180FD08C08AA582958A
:100620008F700E94A101892BC9F707C08AA5829506
:100630008F700E94A101892BC9F3DF91CF9108959A
:10064000DF92EF92FF920F931F93CF93DF93EC0112
:10065000E62E8CA180FD10C08AA582958F700E9425
:10066000A101892BC9F7DFB6F8948CA180FD0CC0DD
:10067000CE010E9495020EC08AA582958F700E94BD
:10068000A101892BC9F3EFCFE8A5F9A590818FA12E
:10069000892B80838AA19BA105960E94E2028CA1EE
:1006A00008E010E0FF24F39480FD1CC08F2D8E2104
:1006B00039F0E8A5F9A590818FA1892B808303C02B
:1006C000CE010E9495028AA19BA10E94E202FF0C2A
:1006D0000150110959F7E8A5F9A590818FA1892B3F
:1006E000808318C08F2D8E2121F0CE010E949502AB
:1006F00006C0E8A5F9A590818FA1892B80838AA1E6
:100700009BA10E94E202FF0C0150110959F7CE0192
:100710000E949502DFBE8AA19BA1DF91CF911F911C
:100720000F91FF90EF90DF900C94E2028F929F92D6
:10073000AF92BF92CF92DF92EF92FF920F931F93EF
:10074000CF93DF931F92CDB7DEB74C01A62E6A017F
:10075000122FB32E9EE3E92E91E0F92EF70161915D
:100760007F01662331F0C40179830E9420037981DF
:10077000F5CFEA2CF72ECE0CDF1CEC14FD0439F07B
:10078000F70161917F01C4010E942003F6CFE12EA1
:10079000FB2C100F1E1559F1F40182A582958F7064
:1007A0000E94A101892BC1F7F40182A193A10596B2
:1007B0000E94E20288E0C82ED12CBB24B39400E052
:1007C000F40182A582958F700E94A101892B09F006
:1007D0000B0DF40182A193A10E94E202BB0CF1E097
:1007E000CF1AD10869F7F70101937F01D3CF0F909A
:1007F000DF91CF911F910F91FF90EF90DF90CF90FD
:10080000BF90AF909F908F9008950F931F93CF93B9
:10081000DF938C01C3E4D1E06991662339F0C8010C
:100820000E94200380EA8A95F1F7F6CFDF91CF91FD
:100830001F910F9108950C9420038F929F92AF9275
:10084000BF92CF92DF92EF92FF920F931F93CF93BD
:10085000DF935C016B017A0180910B01882309F41D
:100860005BC08091C401882309F456C08091C10106
:1008700080FF05C08091E00082608093E000E70186
:1008800010E00AEF83E0882E9AE3992E2097D9F1A1
:100890000E94AD0981110AC0015009F43DC061E018
:1008A00070E080E090E00E945B02F0CF282F30E003
:1008B000C217D3070CF48C2F4FB7F8948092E9003D
:1008C0009091E80095FF1DC0282F30E0C21BD30B8C
:1008D000F601982F915020F081918093F100FACF8A
:1008E000C20ED31E112319F09092E80009C0809126
:1008F000E80085FD06C09092E80011E0209709F01D
:1009000010E04FBFC3CF1111C3CF5D9A84E680932F
:10091000C2011E141F0444F081E090E0F5019383AE
:10092000828380E090E001C0C701DF91CF911F91E9
:100930000F91FF90EF90DF90CF90BF90AF909F907E
:100940008F9008950E94AD0990E00895CF93DF93B2
:100950001F92CDB7DEB7FC018485958597FD05C054
:100960002FEF3FEF358724870BC0CE0101960E9401
:100970008309019719F4898190E002C08FEF9FEFFE
:100980000F90DF91CF9108950F931F93CF93DF9333
:100990001F92CDB7DEB78C01FC018485958597FF4A
:1009A0000EC0CE0101960E948309019719F4298196
:1009B00030E002C02FEF3FEFF80135872487F801C0
:1009C000848595850F90DF91CF911F910F910895A8
:1009D0000E94200E2FB7F8946091AB017091AC018A
:1009E0008091AD019091AE012FBF08951F920F929B
:1009F0000FB60F9211242F933F938F939F93AF9332
:100A0000BF938091AB019091AC01A091AD01B091E9
:100A1000AE013091AA0123E0230F2D3720F4019677
:100A2000A11DB11D05C026E8230F0296A11DB11D11
:100A30002093AA018093AB019093AC01A093AD01E8
:100A4000B093AE018091AF019091B001A091B1013E
:100A5000B091B2010196A11DB11D8093AF01909399
:100A6000B001A093B101B093B201BF91AF919F913A
:100A70008F913F912F910F900FBE0F901F9018955F
:100A80004091BF015091C0012091BD013091BE0144
:100A900042175307B4F49091E8009570E1F39091F8
:100AA000E80092FD19C08093F1008091BF01909100
:100AB000C00101968F739927892B19F48EEF8093CB
:100AC000E8008091BF019091C00101969093C00110
:100AD0008093BF0181E0089580E00895CF92DF9276
:100AE000EF92FF920F931F93CF93DF931F92CDB797
:100AF000DEB7182F062FE42E862F880F8E5F99837E
:100B00000E94400583E00E944005F12EC12E99818C
:100B1000D92E8C2D8F19801798F4F601E7FE02C0AC
:100B2000849101C080810E944005182F80E00E94BE
:100B300040058123FFEFCF1ADF0A8111EACF01C000
:100B400081E00F90DF91CF911F910F91FF90EF9077
:100B5000DF90CF900895DF92EF92FF920F931F9353
:100B6000CF93DF93D82E8A017B01E40EF51EEB01B3
:100B7000CE15DF0571F0D7FE03C0FE01849101C0E0
:100B800088810E94400521968111F2CF8FEF9FEF5F
:100B900001C0C801DF91CF911F910F91FF90EF909D
:100BA000DF900895615030F02091F100FC01208326
:100BB0000196F8CF289A84E68093C3010895CF92D6
:100BC000DF92EF92FF920F931F93CF93DF936C010D
:100BD0007A018B01C0E0D0E0CE15DF0589F0D801A5
:100BE0006D918D01D601ED91FC910190F081E02D88
:100BF000C6010995892B11F47E0102C02196ECCF24
:100C0000C701DF91CF911F910F91FF90EF90DF907F
:100C1000CF9008950F931F93CF93DF931F92CDB77B
:100C2000DEB782E0898342E450E065E071E080E86D
:100C30000E94AB050E94BE09DC0112960D911C9129
:100C400013970115110569F0D801ED91FC9102800F
:100C5000F381E02DBE016F5F7F4FC801099597FFBB
:100C600007C089810F90DF91CF911F910F91089557
:100C7000F80100851185E5CF1F920F920FB60F92F4
:100C80001124CF92DF92EF92FF920F931F932F9335
:100C90003F934F935F936F937F938F939F93AF9304
:100CA000BF93EF93FF93CF93DF93CDB7DEB76C97EE
:100CB000DEBFCDBF1092E9008091E80083FFEDC157
:100CC00068E0CE0145960E94D20582EF8093E8004D
:100CD0008D8987FF05C09091E80090FFFCCF03C08D
:100CE0009EEF9093E800982F907609F0C6C09E89F9
:100CF0002F89188D91110CC0803829F48091BC0186
:100D00008093F10002C01092F1001092F10048C1EE
:100D1000422F50E0512B913051F4811141C14130AB
:100D2000510509F03DC18091BC018D7F0BC093300E
:100D300061F4811135C14130510509F031C1809113
:100D4000BC0182608093BC012BC1953041F480913D
:100D5000E80080FFFCCF20682093E30021C196309B
:100D600009F05FC0EB8CFC8C1092E9001092C0017E
:100D70001092BF01123091F51092BE011092BD0188
:100D80000E940A0699E0BE016F5F7F4FDB01E92FE9
:100D90001D92EA95E9F799831A8391E09E8390EA80
:100DA00098879AEF99872091BF013091C001275F02
:100DB0003F4F3C832B838D831092E9001092C0013A
:100DC0001092BF01F092BE01E092BD0149E050E0F7
:100DD00080E00E94AB050E940A06E2C0F092BE01CC
:100DE000E092BD010E94BE09DC011296ED90FC90DC
:100DF0001397E114F10409F4C0C0D701ED91FC91FF
:100E00000480F581E02DBE016B5E7F4FC70109951F
:100E1000009719F00CF0C4C0C7C0F701E084F1845A
:100E2000E8CF973009F4C0C0983021F481E0809376
:100E3000F100B6C0993009F0B3C0837009F0B4C0B6
:100E4000EDE0F1E081E021E036E39081992361F06B
:100E50008093E9002093EB0091919093EC00309304
:100E6000ED008F5F873089F78EE78093EA0010925C
:100E7000EA008F898093C40193C08B8D9C8D109262
:100E8000E9001092C0011092BF019093BE018093BF
:100E9000BD01898D811156C08E899D89913A59F481
:100EA000813209F081C047E050E064E071E080E009
:100EB0000E94AB0575C0913209F076C0833289F487
:100EC000888D90E0982F88272F89822BA0E0B0E0B2
:100ED0008093000190930101A0930201B09303015C
:100EE0005FC0803269F48091E80082FFFCCF67E048
:100EF00084E091E00E94D2058BEF8093E80006C069
:100F0000823209F04DC08F8980930B018091BB0123
:100F1000882319F0EEEFFAE002C0E0E0F8E08091FB
:100F2000040190910501A0910601B0910701803B59
:100F30009440A105B10509F07BC080910B0180FFB1
:100F400093C076C00E94BE09DC0112960D911C91DF
:100F500013970115110541F1D801ED91FC91019014
:100F6000F081E02DBE016B5E7F4FC80109958111B4
:100F700017C0F80100851185ECCF113009F44EC07F
:100F8000133091F48F89882309F445C0823081F4AD
:100F900040E86DE089E691E00E946E05882321F02B
:100FA0008EEF8093E80079C081E28093EB0075C0FA
:100FB000813029F440E86BE08DE591E0EDCF83309E
:100FC00099F70E94BE09DC011296ED90FC901397F0
:100FD0008E010F5F1F4F6801E114F10479F0D70112
:100FE000ED91FC910680F781E02DB801C7010995CC
:100FF000080F111DF701E084F184EECFD8011C9297
:10100000F60101900020E9F73197BF016C197D09C5
:1010100040E0C601C1CF67E471E002C06BE471E05B
:101020006115710509F2FB01449150E080E840CF61
:101030000FB6F894A8958091600088618093600055
:10104000109260000FBEA895EE3F2AE0F20739F03B
:101050008091FE0A9091FF0A91838083A1CF109224
:10106000FF0A1092FE0A9CCFEE3F8AE0F80731F0AB
:10107000808191819093FF0A8093FE0A87E797E72A
:10108000918380839BE088E10FB6F894A8958093C4
:1010900060000FBE9093600083CF6C960FB6F894FB
:1010A000DEBF0FBECDBFDF91CF91FF91EF91BF911A
:1010B000AF919F918F917F916F915F914F913F91F0
:1010C0002F911F910F91FF90EF90DF90CF900F9095
:1010D0000FBE0F901F9018956115710579F0FB01F7
:1010E00001900020E9F73197AF01461B570BDC0157
:1010F000ED91FC910280F381E02D099480E090E075
:1011000008954F925F926F927F92EF92FF920F93AA
:101110001F93CF93DF93CDB7DEB7A1970FB6F894A7
:10112000DEBF0FBECDBF7C01FA01CB0119A2223078
:1011300008F42AE08E010F5D1F4F422E512C612CC6
:10114000712CBF01A30192010E94D00DF901CA01C7
:10115000015011096A3014F4605D01C0695CD80166
:101160006C93232B242B252B61F7B801C7010E9418
:101170006C08A1960FB6F894DEBF0FBECDBFDF910D
:10118000CF911F910F91FF90EF907F906F905F90A4
:101190004F9008951F93CF93DF93182F90915D0286
:1011A0009130C9F5C1E9D1E06991662361F0809180
:1011B000730290917402DC01ED91FC910280F38145
:1011C000E02D0995F1CF10925D0210925E0283E14D
:1011D0008093670291E090935F02109260021092F8
:1011E0006102109262021092630224E630E03093B2
:1011F0006D0220936C0230936B0220936A0280E4AC
:101200008093640210926502909366029093680244
:10121000909369020FC0923069F4809173029091AB
:101220007402DC01ED91FC910680F781E02D0995B7
:1012300010925D028091730290917402DC01ED9135
:10124000FC910280F381E02D612FDF91CF911F91FE
:101250000994CF93DF93EC018991882319F00E94C0
:10126000CA08FACFDF91CF9108958F929F92AF92E3
:10127000BF92CF92DF92EF92FF926B017C010E94AE
:10128000EA044B015C01C60ED71EE81EF91E0E943F
:10129000EA04681579058A059B0528F0C616D70665
:1012A000E806F906A0F7FF90EF90DF90CF90BF908F
:1012B000AF909F908F900895CF92DF92EF92FF9220
:1012C0006B017C012AE030E040E050E00E94D00D4C
:1012D000211531054105510521F0CA01B9010E94CE
:1012E0005C09C701B6012AE030E040E050E00E940E
:1012F000D00DFB01E756FE4F8081FF90EF90DF900D
:10130000CF900C94CA08FC018091C401811103C0E4
:101310008FEF9FEF08959FB7F89482E08093E900E4
:101320002091F20030E01216130614F421E030E0B0
:101330002115310559F0289A84E68093C3018091E4
:10134000F10080838091F200882319F09FBFC901CA
:1013500008958BE68093E800F9CF2FB7F89483E0E7
:101360008093E9009091E800892F807295FF04C076
:101370009091F20080E4891B2FBF08958091A6020E
:1013800081110DC082E08093A20284E08093A302C9
:101390001092A5021092A40281E08093A60282EA34
:1013A00092E008951F920F920FB60F9211248F931F
:1013B0009F938091E1009091E100937F9093E100F1
:1013C00083FF0FC01092E90091E09093EB00109220
:1013D000EC0092E39093ED001092C40198E090939A
:1013E000F00082FF20C093E09093E9009091F2001A
:1013F000992319F09AE39093E8009091C201992300
:1014000039F09091C20191509093C201992389F1D2
:101410009091C301992339F09091C3019150909319
:10142000C301992341F184FF10C08091E2008E7EB8
:1014300081608093E2008091E1008F7E8093E100E3
:101440008091C1018E7E806111C080FF16C08091A5
:10145000E2008E7E80618093E2008091E1008E7ECA
:101460008093E1008091C1018E7E81608093C101F3
:1014700004C05D98CDCF2898D6CF9F918F910F90C3
:101480000FBE0F901F901895789484B5826084BD2C
:1014900084B5816084BD85B5826085BD85B5816078
:1014A00085BD80916E00816080936E0010928100F6
:1014B00080918100826080938100809181008160B1
:1014C0008093810080918000816080938000809172
:1014D000910082608093910080919100816080935F
:1014E0009100809190008160809390008091C10074
:1014F00084608093C1008091C10082608093C100AC
:101500008091C10081608093C1008091C30081609F
:101510008093C3008091C00082608093C00080915E
:10152000C20081608093C20080917A0084608093C1
:101530007A0080917A00826080937A0080917A00AC
:10154000816080937A0080917A00806880937A002D
:101550001092C4011092BC011092C1018091D70079
:1015600081608093D70080EA8093D80089B580613C
:1015700089BD89B5826089BD09B400FEFDCF61E0F7
:1015800070E080E090E00E945B028091D8008F7C48
:1015900080618093D8008091E000807F8093E0009C
:1015A0008091E1008E7E8093E1008DE08093E200E7
:1015B000559A209A5D982898EEEFFFE785919491CF
:1015C0008B3F9C4D19F481E08093BB01109259022E
:1015D00010925A0210925B0210925C021092170253
:1015E000109218021092190210921A0268EB7BE016
:1015F00080E090E00E94350985EC91E090935802DC
:1016000080935702CBE1D0E010910B016AE070E0CB
:1016100080E090E00E945B02111109C0219739F02F
:1016200064E670E080E090E00E945B02EDCFE09124
:101630005702F09158028FEF9FEF958784870E94A1
:10164000EA04609317027093180280931902909332
:101650001A026BE471E080915702909158020E9447
:101660006C086AE070E080E090E00E943509C1E01B
:10167000C0932B028FEF99E6A8E181509040A040E3
:10168000E1F700C0000084E180936F0282E0809364
:10169000700285E792E0909374028093730281E078
:1016A00090E09093720280937102E0917502F09144
:1016B00076020484F585E02D61E070E085E792E034
:1016C000099510925D0210925E0283E18093670299
:1016D000C0935F0210926002109261021092620247
:1016E0001092630284E690E090936D0280936C0206
:1016F00090936B0280936A0280E48093640210925C
:101700006502C0936602C0936802C093690280912B
:10171000730290917402DC01ED91FC910190F081D3
:10172000E02D09958DE591E00E9429090E94EA04C7
:10173000672B682B692B41F40E94EA046230710523
:101740008105910508F40EC10E94EA046093B70177
:101750007093B8018093B9019093BA010091B301DD
:101760001091B4012091B5013091B6016017710755
:101770008207930740F46093B3017093B4018093A0
:10178000B5019093B6010091B3011091B40120917D
:10179000B5013091B6016B017C01C01AD10AE20A91
:1017A000F30A970186010A3F11052105310508F466
:1017B000D9C06093B3017093B4018093B501909345
:1017C000B60184EF91E0A0E0B0E080932302909313
:1017D0002402A0932502B0932602109227021092B1
:1017E00028021092290210922A0280911B029091E5
:1017F0001C02A0911D02B0911E0280931F029093C3
:101800002002A0932102B09322020E94EA04609376
:101810001B0270931C0280931D0290931E020E9473
:10182000EA04609317027093180280931902909350
:101830001A020E94EA046B017C0160E671E080916B
:101840005702909158020E946C082AE041E050E053
:1018500060E070E080915702909158020E948108E8
:1018600067E671E080915702909158020E946C08DF
:101870002AE0B701A60180915702909158020E9478
:10188000810869E671E080915702909158020E94A8
:101890006C0880911B0290911C02A0911D02B091D6
:1018A0001E02B701A601481B590B6A0B7B0B2AE0ED
:1018B00080915702909158020E94810869E671E078
:1018C00080915702909158020E946C0840911B022F
:1018D00050911C0260911D0270911E0280911F02A6
:1018E00090912002A0912102B0912202481B590B35
:1018F0006A0B7B0B2AE080915702909158020E945C
:1019000081086BE671E080915702909158020E9425
:101910006C080E94EA04AB01BC012AE080915702E6
:10192000909158020E948108C0915702D0915802AC
:101930006DE671E0CE010E946C086AE571E0CE01AF
:101940000E946C0862E070E080E090E00E9435093F
:101950000E94EA0460931B0270931C0280931D0294
:1019600090931E0280916E02882319F0C0E9D1E0A5
:1019700002C0C8ECD0E084E791E00E94290999E117
:10198000A92EB12C89E1C82ED12CE12CF12C860195
:1019900029ECC216D104E104F10420F080916E021A
:1019A000882381F08DE791E00E942909C801B501E3
:1019B0000E94F20D81E0860F0E94CA0810936B020C
:1019C00000936A0280916F028823A1F080917002D7
:1019D000823080F080E891E00E94290980E00E9436
:1019E000CA0880E00E94CA0881E00E94CA0880E01C
:1019F0000E94CA08C701B6010E945C0983E891E011
:101A00000E9429098FEF93EDA0E381509040A04000
:101A1000E1F700C00000B9E1CB0ED11CE11CF11CC4
:101A2000CC15DD050CF0B3CFADCF1092C8011092EC
:101A3000C70188EE93E0A0E0B0E08093C9019093E5
:101A4000CA01A093CB01B093CC0187E191E09093C0
:101A5000C6018093C5018FEF9FEF9093D2018093D1
:101A6000D10110921B0210921C0210921D021092C2
:101A70001E0210921F021092200210922102109258
:101A80002202109223021092240210922502109238
:101A90002602109227021092280210922902109218
:101AA0002A0289E291E09093760280937502109267
:101AB0008E0210928D0210928A021092920210925F
:101AC0009102109294021092930210929602109238
:101AD0009502109298021092970283E580939F02DC
:101AE0008091A002807F87608093A002E7EDF1E003
:101AF000E491E0939C02E8EBF1E0E491F0E0EE0F7A
:101B0000FF1FE955FE4F8591949190939E0280931B
:101B10009D0287E791E020E030E0FC01459155917E
:101B200065917491411556496105710559F54CE06F
:101B3000429FC001439F900D1124FC01E558FE4FC8
:101B4000259134913093920220939102FC01E35845
:101B5000FE4F259134913093940220939302FC011F
:101B6000E158FE4F259134913093960220939502CF
:101B7000FC01EF57FE4F85919491909398028093CA
:101B8000970207C02F5F3F4F0C962430310509F0B4
:101B9000C4CF109272021092710210926E020895D8
:101BA000A1E21A2EAA1BBB1BFD010DC0AA1FBB1F61
:101BB000EE1FFF1FA217B307E407F50720F0A21BD3
:101BC000B30BE40BF50B661F771F881F991F1A9440
:101BD00069F760957095809590959B01AC01BD016A
:101BE000CF01089597FB072E16F4009407D077FDD8
:101BF00009D00E940C0E07FC05D03EF4909581950B
:101C00009F4F0895709561957F4F0895EE0FFF1FC8
:101C10000590F491E02D0994AA1BBB1B51E107C06C
:101C2000AA1FBB1FA617B70710F0A61BB70B881F6C
:101C3000991F5A95A9F780959095BC01CD010895FB
:0E1C400081E090E0F8940C94250EF894FFCF0C
:101C4E00FFFFFFFF00E100000000000000C18081E7
:101C5E000000000000000025011D04A2043B014607
:101C6E0001A604C40400000000C8021B04A1020562
:101C7E00049603E902B9021F286583494E001F2806
:101C8E006540001F2865844F555400564D445056EC
:101C9E005F317C315F564D4450560D0A001B40009B
:101CAE00564D4450455F003A323A007C005F564D27
:101CBE00445045004E6F726974616B65001F580089
:101CCE001F240025204272696768746E6573732045
:101CDE00001F2865024F55540030313233343536EB
:0A1CEE0037383941424344454600AF
:00000001FF
